{
  "_format": "hh-sol-artifact-1",
  "contractName": "NFTMinter",
  "sourceName": "contracts/NFT.sol",
  "abi": [
    {
      "inputs": [],
      "stateMutability": "nonpayable",
      "type": "constructor"
    },
    {
      "inputs": [
        {
          "internalType": "address",
          "name": "sender",
          "type": "address"
        },
        {
          "internalType": "uint256",
          "name": "tokenId",
          "type": "uint256"
        },
        {
          "internalType": "address",
          "name": "owner",
          "type": "address"
        }
      ],
      "name": "ERC721IncorrectOwner",
      "type": "error"
    },
    {
      "inputs": [
        {
          "internalType": "address",
          "name": "operator",
          "type": "address"
        },
        {
          "internalType": "uint256",
          "name": "tokenId",
          "type": "uint256"
        }
      ],
      "name": "ERC721InsufficientApproval",
      "type": "error"
    },
    {
      "inputs": [
        {
          "internalType": "address",
          "name": "approver",
          "type": "address"
        }
      ],
      "name": "ERC721InvalidApprover",
      "type": "error"
    },
    {
      "inputs": [
        {
          "internalType": "address",
          "name": "operator",
          "type": "address"
        }
      ],
      "name": "ERC721InvalidOperator",
      "type": "error"
    },
    {
      "inputs": [
        {
          "internalType": "address",
          "name": "owner",
          "type": "address"
        }
      ],
      "name": "ERC721InvalidOwner",
      "type": "error"
    },
    {
      "inputs": [
        {
          "internalType": "address",
          "name": "receiver",
          "type": "address"
        }
      ],
      "name": "ERC721InvalidReceiver",
      "type": "error"
    },
    {
      "inputs": [
        {
          "internalType": "address",
          "name": "sender",
          "type": "address"
        }
      ],
      "name": "ERC721InvalidSender",
      "type": "error"
    },
    {
      "inputs": [
        {
          "internalType": "uint256",
          "name": "tokenId",
          "type": "uint256"
        }
      ],
      "name": "ERC721NonexistentToken",
      "type": "error"
    },
    {
      "anonymous": false,
      "inputs": [
        {
          "indexed": true,
          "internalType": "address",
          "name": "owner",
          "type": "address"
        },
        {
          "indexed": true,
          "internalType": "address",
          "name": "approved",
          "type": "address"
        },
        {
          "indexed": true,
          "internalType": "uint256",
          "name": "tokenId",
          "type": "uint256"
        }
      ],
      "name": "Approval",
      "type": "event"
    },
    {
      "anonymous": false,
      "inputs": [
        {
          "indexed": true,
          "internalType": "address",
          "name": "owner",
          "type": "address"
        },
        {
          "indexed": true,
          "internalType": "address",
          "name": "operator",
          "type": "address"
        },
        {
          "indexed": false,
          "internalType": "bool",
          "name": "approved",
          "type": "bool"
        }
      ],
      "name": "ApprovalForAll",
      "type": "event"
    },
    {
      "anonymous": false,
      "inputs": [
        {
          "indexed": false,
          "internalType": "uint256",
          "name": "_fromTokenId",
          "type": "uint256"
        },
        {
          "indexed": false,
          "internalType": "uint256",
          "name": "_toTokenId",
          "type": "uint256"
        }
      ],
      "name": "BatchMetadataUpdate",
      "type": "event"
    },
    {
      "anonymous": false,
      "inputs": [
        {
          "indexed": false,
          "internalType": "uint256",
          "name": "_tokenId",
          "type": "uint256"
        }
      ],
      "name": "MetadataUpdate",
      "type": "event"
    },
    {
      "anonymous": false,
      "inputs": [
        {
          "indexed": true,
          "internalType": "address",
          "name": "from",
          "type": "address"
        },
        {
          "indexed": true,
          "internalType": "address",
          "name": "to",
          "type": "address"
        },
        {
          "indexed": true,
          "internalType": "uint256",
          "name": "tokenId",
          "type": "uint256"
        }
      ],
      "name": "Transfer",
      "type": "event"
    },
    {
      "inputs": [
        {
          "internalType": "address",
          "name": "to",
          "type": "address"
        },
        {
          "internalType": "uint256",
          "name": "tokenId",
          "type": "uint256"
        }
      ],
      "name": "approve",
      "outputs": [],
      "stateMutability": "nonpayable",
      "type": "function"
    },
    {
      "inputs": [
        {
          "internalType": "address",
          "name": "owner",
          "type": "address"
        }
      ],
      "name": "balanceOf",
      "outputs": [
        {
          "internalType": "uint256",
          "name": "",
          "type": "uint256"
        }
      ],
      "stateMutability": "view",
      "type": "function"
    },
    {
      "inputs": [
        {
          "internalType": "uint256",
          "name": "tokenId",
          "type": "uint256"
        }
      ],
      "name": "getApproved",
      "outputs": [
        {
          "internalType": "address",
          "name": "",
          "type": "address"
        }
      ],
      "stateMutability": "view",
      "type": "function"
    },
    {
      "inputs": [
        {
          "internalType": "address",
          "name": "owner",
          "type": "address"
        },
        {
          "internalType": "address",
          "name": "operator",
          "type": "address"
        }
      ],
      "name": "isApprovedForAll",
      "outputs": [
        {
          "internalType": "bool",
          "name": "",
          "type": "bool"
        }
      ],
      "stateMutability": "view",
      "type": "function"
    },
    {
      "inputs": [
        {
          "internalType": "address",
          "name": "recipient",
          "type": "address"
        },
        {
          "internalType": "string",
          "name": "tokenURI",
          "type": "string"
        }
      ],
      "name": "mintNFT",
      "outputs": [
        {
          "internalType": "uint256",
          "name": "",
          "type": "uint256"
        }
      ],
      "stateMutability": "payable",
      "type": "function"
    },
    {
      "inputs": [],
      "name": "mintPrice",
      "outputs": [
        {
          "internalType": "uint256",
          "name": "",
          "type": "uint256"
        }
      ],
      "stateMutability": "view",
      "type": "function"
    },
    {
      "inputs": [],
      "name": "name",
      "outputs": [
        {
          "internalType": "string",
          "name": "",
          "type": "string"
        }
      ],
      "stateMutability": "view",
      "type": "function"
    },
    {
      "inputs": [
        {
          "internalType": "uint256",
          "name": "tokenId",
          "type": "uint256"
        }
      ],
      "name": "ownerOf",
      "outputs": [
        {
          "internalType": "address",
          "name": "",
          "type": "address"
        }
      ],
      "stateMutability": "view",
      "type": "function"
    },
    {
      "inputs": [
        {
          "internalType": "address",
          "name": "from",
          "type": "address"
        },
        {
          "internalType": "address",
          "name": "to",
          "type": "address"
        },
        {
          "internalType": "uint256",
          "name": "tokenId",
          "type": "uint256"
        }
      ],
      "name": "safeTransferFrom",
      "outputs": [],
      "stateMutability": "nonpayable",
      "type": "function"
    },
    {
      "inputs": [
        {
          "internalType": "address",
          "name": "from",
          "type": "address"
        },
        {
          "internalType": "address",
          "name": "to",
          "type": "address"
        },
        {
          "internalType": "uint256",
          "name": "tokenId",
          "type": "uint256"
        },
        {
          "internalType": "bytes",
          "name": "data",
          "type": "bytes"
        }
      ],
      "name": "safeTransferFrom",
      "outputs": [],
      "stateMutability": "nonpayable",
      "type": "function"
    },
    {
      "inputs": [
        {
          "internalType": "address",
          "name": "operator",
          "type": "address"
        },
        {
          "internalType": "bool",
          "name": "approved",
          "type": "bool"
        }
      ],
      "name": "setApprovalForAll",
      "outputs": [],
      "stateMutability": "nonpayable",
      "type": "function"
    },
    {
      "inputs": [
        {
          "internalType": "bytes4",
          "name": "interfaceId",
          "type": "bytes4"
        }
      ],
      "name": "supportsInterface",
      "outputs": [
        {
          "internalType": "bool",
          "name": "",
          "type": "bool"
        }
      ],
      "stateMutability": "view",
      "type": "function"
    },
    {
      "inputs": [],
      "name": "symbol",
      "outputs": [
        {
          "internalType": "string",
          "name": "",
          "type": "string"
        }
      ],
      "stateMutability": "view",
      "type": "function"
    },
    {
      "inputs": [
        {
          "internalType": "uint256",
          "name": "tokenId",
          "type": "uint256"
        }
      ],
      "name": "tokenURI",
      "outputs": [
        {
          "internalType": "string",
          "name": "",
          "type": "string"
        }
      ],
      "stateMutability": "view",
      "type": "function"
    },
    {
      "inputs": [
        {
          "internalType": "address",
          "name": "from",
          "type": "address"
        },
        {
          "internalType": "address",
          "name": "to",
          "type": "address"
        },
        {
          "internalType": "uint256",
          "name": "tokenId",
          "type": "uint256"
        }
      ],
      "name": "transferFrom",
      "outputs": [],
      "stateMutability": "nonpayable",
      "type": "function"
    }
  ],
  "bytecode": "0x60806040526000600755670de0b6b3a76400006008553480156200002257600080fd5b506040518060400160405280601681526020017f536861726465756d20446576204e46544d696e746572000000000000000000008152506040518060400160405280600481526020017f534e4654000000000000000000000000000000000000000000000000000000008152508160009081620000a0919062000335565b508060019081620000b2919062000335565b5050506200041c565b600081519050919050565b7f4e487b7100000000000000000000000000000000000000000000000000000000600052604160045260246000fd5b7f4e487b7100000000000000000000000000000000000000000000000000000000600052602260045260246000fd5b600060028204905060018216806200013d57607f821691505b602082108103620001535762000152620000f5565b5b50919050565b60008190508160005260206000209050919050565b60006020601f8301049050919050565b600082821b905092915050565b600060088302620001bd7fffffffffffffffffffffffffffffffffffffffffffffffffffffffffffffffff826200017e565b620001c986836200017e565b95508019841693508086168417925050509392505050565b6000819050919050565b6000819050919050565b600062000216620002106200020a84620001e1565b620001eb565b620001e1565b9050919050565b6000819050919050565b6200023283620001f5565b6200024a62000241826200021d565b8484546200018b565b825550505050565b600090565b6200026162000252565b6200026e81848462000227565b505050565b5b8181101562000296576200028a60008262000257565b60018101905062000274565b5050565b601f821115620002e557620002af8162000159565b620002ba846200016e565b81016020851015620002ca578190505b620002e2620002d9856200016e565b83018262000273565b50505b505050565b600082821c905092915050565b60006200030a60001984600802620002ea565b1980831691505092915050565b6000620003258383620002f7565b9150826002028217905092915050565b6200034082620000bb565b67ffffffffffffffff8111156200035c576200035b620000c6565b5b62000368825462000124565b620003758282856200029a565b600060209050601f831160018114620003ad576000841562000398578287015190505b620003a4858262000317565b86555062000414565b601f198416620003bd8662000159565b60005b82811015620003e757848901518255600182019150602085019450602081019050620003c0565b8683101562000407578489015162000403601f891682620002f7565b8355505b6001600288020188555050505b505050505050565b61255d806200042c6000396000f3fe6080604052600436106100e85760003560e01c80636817c76c1161008a578063b88d4fde11610059578063b88d4fde14610306578063c87b56dd1461032f578063e985e9c51461036c578063eacabe14146103a9576100e8565b80636817c76c1461024a57806370a082311461027557806395d89b41146102b2578063a22cb465146102dd576100e8565b8063095ea7b3116100c6578063095ea7b31461019257806323b872dd146101bb57806342842e0e146101e45780636352211e1461020d576100e8565b806301ffc9a7146100ed57806306fdde031461012a578063081812fc14610155575b600080fd5b3480156100f957600080fd5b50610114600480360381019061010f9190611937565b6103d9565b604051610121919061197f565b60405180910390f35b34801561013657600080fd5b5061013f61043a565b60405161014c9190611a2a565b60405180910390f35b34801561016157600080fd5b5061017c60048036038101906101779190611a82565b6104cc565b6040516101899190611af0565b60405180910390f35b34801561019e57600080fd5b506101b960048036038101906101b49190611b37565b6104e8565b005b3480156101c757600080fd5b506101e260048036038101906101dd9190611b77565b6104fe565b005b3480156101f057600080fd5b5061020b60048036038101906102069190611b77565b610600565b005b34801561021957600080fd5b50610234600480360381019061022f9190611a82565b610620565b6040516102419190611af0565b60405180910390f35b34801561025657600080fd5b5061025f610632565b60405161026c9190611bd9565b60405180910390f35b34801561028157600080fd5b5061029c60048036038101906102979190611bf4565b610638565b6040516102a99190611bd9565b60405180910390f35b3480156102be57600080fd5b506102c76106f2565b6040516102d49190611a2a565b60405180910390f35b3480156102e957600080fd5b5061030460048036038101906102ff9190611c4d565b610784565b005b34801561031257600080fd5b5061032d60048036038101906103289190611dc2565b61079a565b005b34801561033b57600080fd5b5061035660048036038101906103519190611a82565b6107b7565b6040516103639190611a2a565b60405180910390f35b34801561037857600080fd5b50610393600480360381019061038e9190611e45565b6108ca565b6040516103a0919061197f565b60405180910390f35b6103c360048036038101906103be9190611f26565b61095e565b6040516103d09190611bd9565b60405180910390f35b6000634906490660e01b7bffffffffffffffffffffffffffffffffffffffffffffffffffffffff1916827bffffffffffffffffffffffffffffffffffffffffffffffffffffffff191614806104335750610432826109e3565b5b9050919050565b60606000805461044990611fb1565b80601f016020809104026020016040519081016040528092919081815260200182805461047590611fb1565b80156104c25780601f10610497576101008083540402835291602001916104c2565b820191906000526020600020905b8154815290600101906020018083116104a557829003601f168201915b5050505050905090565b60006104d782610ac5565b506104e182610b4d565b9050919050565b6104fa82826104f5610b8a565b610b92565b5050565b600073ffffffffffffffffffffffffffffffffffffffff168273ffffffffffffffffffffffffffffffffffffffff16036105705760006040517f64a0ae920000000000000000000000000000000000000000000000000000000081526004016105679190611af0565b60405180910390fd5b6000610584838361057f610b8a565b610ba4565b90508373ffffffffffffffffffffffffffffffffffffffff168173ffffffffffffffffffffffffffffffffffffffff16146105fa578382826040517f64283d7b0000000000000000000000000000000000000000000000000000000081526004016105f193929190611fe2565b60405180910390fd5b50505050565b61061b8383836040518060200160405280600081525061079a565b505050565b600061062b82610ac5565b9050919050565b60085481565b60008073ffffffffffffffffffffffffffffffffffffffff168273ffffffffffffffffffffffffffffffffffffffff16036106ab5760006040517f89c62b640000000000000000000000000000000000000000000000000000000081526004016106a29190611af0565b60405180910390fd5b600360008373ffffffffffffffffffffffffffffffffffffffff1673ffffffffffffffffffffffffffffffffffffffff168152602001908152602001600020549050919050565b60606001805461070190611fb1565b80601f016020809104026020016040519081016040528092919081815260200182805461072d90611fb1565b801561077a5780601f1061074f5761010080835404028352916020019161077a565b820191906000526020600020905b81548152906001019060200180831161075d57829003601f168201915b5050505050905090565b61079661078f610b8a565b8383610dbe565b5050565b6107a58484846104fe565b6107b184848484610f2d565b50505050565b60606107c282610ac5565b5060006006600084815260200190815260200160002080546107e390611fb1565b80601f016020809104026020016040519081016040528092919081815260200182805461080f90611fb1565b801561085c5780601f106108315761010080835404028352916020019161085c565b820191906000526020600020905b81548152906001019060200180831161083f57829003601f168201915b50505050509050600061086d6110e4565b905060008151036108825781925050506108c5565b6000825111156108b757808260405160200161089f929190612055565b604051602081830303815290604052925050506108c5565b6108c0846110fb565b925050505b919050565b6000600560008473ffffffffffffffffffffffffffffffffffffffff1673ffffffffffffffffffffffffffffffffffffffff16815260200190815260200160002060008373ffffffffffffffffffffffffffffffffffffffff1673ffffffffffffffffffffffffffffffffffffffff16815260200190815260200160002060009054906101000a900460ff16905092915050565b600060085434146109a4576040517f08c379a000000000000000000000000000000000000000000000000000000000815260040161099b906120eb565b60405180910390fd5b6001600760008282546109b7919061213a565b92505081905550600060075490506109cf8482611164565b6109d9818461125d565b8091505092915050565b60007f80ac58cd000000000000000000000000000000000000000000000000000000007bffffffffffffffffffffffffffffffffffffffffffffffffffffffff1916827bffffffffffffffffffffffffffffffffffffffffffffffffffffffff19161480610aae57507f5b5e139f000000000000000000000000000000000000000000000000000000007bffffffffffffffffffffffffffffffffffffffffffffffffffffffff1916827bffffffffffffffffffffffffffffffffffffffffffffffffffffffff1916145b80610abe5750610abd826112b9565b5b9050919050565b600080610ad183611323565b9050600073ffffffffffffffffffffffffffffffffffffffff168173ffffffffffffffffffffffffffffffffffffffff1603610b4457826040517f7e273289000000000000000000000000000000000000000000000000000000008152600401610b3b9190611bd9565b60405180910390fd5b80915050919050565b60006004600083815260200190815260200160002060009054906101000a900473ffffffffffffffffffffffffffffffffffffffff169050919050565b600033905090565b610b9f8383836001611360565b505050565b600080610bb084611323565b9050600073ffffffffffffffffffffffffffffffffffffffff168373ffffffffffffffffffffffffffffffffffffffff1614610bf257610bf1818486611525565b5b600073ffffffffffffffffffffffffffffffffffffffff168173ffffffffffffffffffffffffffffffffffffffff1614610c8357610c34600085600080611360565b6001600360008373ffffffffffffffffffffffffffffffffffffffff1673ffffffffffffffffffffffffffffffffffffffff168152602001908152602001600020600082825403925050819055505b600073ffffffffffffffffffffffffffffffffffffffff168573ffffffffffffffffffffffffffffffffffffffff1614610d06576001600360008773ffffffffffffffffffffffffffffffffffffffff1673ffffffffffffffffffffffffffffffffffffffff168152602001908152602001600020600082825401925050819055505b846002600086815260200190815260200160002060006101000a81548173ffffffffffffffffffffffffffffffffffffffff021916908373ffffffffffffffffffffffffffffffffffffffff160217905550838573ffffffffffffffffffffffffffffffffffffffff168273ffffffffffffffffffffffffffffffffffffffff167fddf252ad1be2c89b69c2b068fc378daa952ba7f163c4a11628f55a4df523b3ef60405160405180910390a4809150509392505050565b600073ffffffffffffffffffffffffffffffffffffffff168273ffffffffffffffffffffffffffffffffffffffff1603610e2f57816040517f5b08ba18000000000000000000000000000000000000000000000000000000008152600401610e269190611af0565b60405180910390fd5b80600560008573ffffffffffffffffffffffffffffffffffffffff1673ffffffffffffffffffffffffffffffffffffffff16815260200190815260200160002060008473ffffffffffffffffffffffffffffffffffffffff1673ffffffffffffffffffffffffffffffffffffffff16815260200190815260200160002060006101000a81548160ff0219169083151502179055508173ffffffffffffffffffffffffffffffffffffffff168373ffffffffffffffffffffffffffffffffffffffff167f17307eab39ab6107e8899845ad3d59bd9653f200f220920489ca2b5937696c3183604051610f20919061197f565b60405180910390a3505050565b60008373ffffffffffffffffffffffffffffffffffffffff163b11156110de578273ffffffffffffffffffffffffffffffffffffffff1663150b7a02610f71610b8a565b8685856040518563ffffffff1660e01b8152600401610f9394939291906121c3565b6020604051808303816000875af1925050508015610fcf57506040513d601f19601f82011682018060405250810190610fcc9190612224565b60015b611053573d8060008114610fff576040519150601f19603f3d011682016040523d82523d6000602084013e611004565b606091505b50600081510361104b57836040517f64a0ae920000000000000000000000000000000000000000000000000000000081526004016110429190611af0565b60405180910390fd5b805181602001fd5b63150b7a0260e01b7bffffffffffffffffffffffffffffffffffffffffffffffffffffffff1916817bffffffffffffffffffffffffffffffffffffffffffffffffffffffff1916146110dc57836040517f64a0ae920000000000000000000000000000000000000000000000000000000081526004016110d39190611af0565b60405180910390fd5b505b50505050565b606060405180602001604052806000815250905090565b606061110682610ac5565b5060006111116110e4565b90506000815111611131576040518060200160405280600081525061115c565b8061113b846115e9565b60405160200161114c929190612055565b6040516020818303038152906040525b915050919050565b600073ffffffffffffffffffffffffffffffffffffffff168273ffffffffffffffffffffffffffffffffffffffff16036111d65760006040517f64a0ae920000000000000000000000000000000000000000000000000000000081526004016111cd9190611af0565b60405180910390fd5b60006111e483836000610ba4565b9050600073ffffffffffffffffffffffffffffffffffffffff168173ffffffffffffffffffffffffffffffffffffffff16146112585760006040517f73c6ac6e00000000000000000000000000000000000000000000000000000000815260040161124f9190611af0565b60405180910390fd5b505050565b8060066000848152602001908152602001600020908161127d91906123fd565b507ff8e1a15aba9398e019f0b49df1a4fde98ee17ae345cb5f6b5e2c27f5033e8ce7826040516112ad9190611bd9565b60405180910390a15050565b60007f01ffc9a7000000000000000000000000000000000000000000000000000000007bffffffffffffffffffffffffffffffffffffffffffffffffffffffff1916827bffffffffffffffffffffffffffffffffffffffffffffffffffffffff1916149050919050565b60006002600083815260200190815260200160002060009054906101000a900473ffffffffffffffffffffffffffffffffffffffff169050919050565b80806113995750600073ffffffffffffffffffffffffffffffffffffffff168273ffffffffffffffffffffffffffffffffffffffff1614155b156114cd5760006113a984610ac5565b9050600073ffffffffffffffffffffffffffffffffffffffff168373ffffffffffffffffffffffffffffffffffffffff161415801561141457508273ffffffffffffffffffffffffffffffffffffffff168173ffffffffffffffffffffffffffffffffffffffff1614155b8015611427575061142581846108ca565b155b1561146957826040517fa9fbf51f0000000000000000000000000000000000000000000000000000000081526004016114609190611af0565b60405180910390fd5b81156114cb57838573ffffffffffffffffffffffffffffffffffffffff168273ffffffffffffffffffffffffffffffffffffffff167f8c5be1e5ebec7d5bd14f71427d1e84f3dd0314c0f7b2291e5b200ac8c7c3b92560405160405180910390a45b505b836004600085815260200190815260200160002060006101000a81548173ffffffffffffffffffffffffffffffffffffffff021916908373ffffffffffffffffffffffffffffffffffffffff16021790555050505050565b6115308383836116b7565b6115e457600073ffffffffffffffffffffffffffffffffffffffff168373ffffffffffffffffffffffffffffffffffffffff16036115a557806040517f7e27328900000000000000000000000000000000000000000000000000000000815260040161159c9190611bd9565b60405180910390fd5b81816040517f177e802f0000000000000000000000000000000000000000000000000000000081526004016115db9291906124cf565b60405180910390fd5b505050565b6060600060016115f884611778565b01905060008167ffffffffffffffff81111561161757611616611c97565b5b6040519080825280601f01601f1916602001820160405280156116495781602001600182028036833780820191505090505b509050600082602001820190505b6001156116ac578080600190039150507f3031323334353637383961626364656600000000000000000000000000000000600a86061a8153600a85816116a05761169f6124f8565b5b04945060008503611657575b819350505050919050565b60008073ffffffffffffffffffffffffffffffffffffffff168373ffffffffffffffffffffffffffffffffffffffff161415801561176f57508273ffffffffffffffffffffffffffffffffffffffff168473ffffffffffffffffffffffffffffffffffffffff161480611730575061172f84846108ca565b5b8061176e57508273ffffffffffffffffffffffffffffffffffffffff1661175683610b4d565b73ffffffffffffffffffffffffffffffffffffffff16145b5b90509392505050565b600080600090507a184f03e93ff9f4daa797ed6e38ed64bf6a1f01000000000000000083106117d6577a184f03e93ff9f4daa797ed6e38ed64bf6a1f01000000000000000083816117cc576117cb6124f8565b5b0492506040810190505b6d04ee2d6d415b85acef81000000008310611813576d04ee2d6d415b85acef81000000008381611809576118086124f8565b5b0492506020810190505b662386f26fc10000831061184257662386f26fc100008381611838576118376124f8565b5b0492506010810190505b6305f5e100831061186b576305f5e1008381611861576118606124f8565b5b0492506008810190505b6127108310611890576127108381611886576118856124f8565b5b0492506004810190505b606483106118b357606483816118a9576118a86124f8565b5b0492506002810190505b600a83106118c2576001810190505b80915050919050565b6000604051905090565b600080fd5b600080fd5b60007fffffffff0000000000000000000000000000000000000000000000000000000082169050919050565b611914816118df565b811461191f57600080fd5b50565b6000813590506119318161190b565b92915050565b60006020828403121561194d5761194c6118d5565b5b600061195b84828501611922565b91505092915050565b60008115159050919050565b61197981611964565b82525050565b60006020820190506119946000830184611970565b92915050565b600081519050919050565b600082825260208201905092915050565b60005b838110156119d45780820151818401526020810190506119b9565b60008484015250505050565b6000601f19601f8301169050919050565b60006119fc8261199a565b611a0681856119a5565b9350611a168185602086016119b6565b611a1f816119e0565b840191505092915050565b60006020820190508181036000830152611a4481846119f1565b905092915050565b6000819050919050565b611a5f81611a4c565b8114611a6a57600080fd5b50565b600081359050611a7c81611a56565b92915050565b600060208284031215611a9857611a976118d5565b5b6000611aa684828501611a6d565b91505092915050565b600073ffffffffffffffffffffffffffffffffffffffff82169050919050565b6000611ada82611aaf565b9050919050565b611aea81611acf565b82525050565b6000602082019050611b056000830184611ae1565b92915050565b611b1481611acf565b8114611b1f57600080fd5b50565b600081359050611b3181611b0b565b92915050565b60008060408385031215611b4e57611b4d6118d5565b5b6000611b5c85828601611b22565b9250506020611b6d85828601611a6d565b9150509250929050565b600080600060608486031215611b9057611b8f6118d5565b5b6000611b9e86828701611b22565b9350506020611baf86828701611b22565b9250506040611bc086828701611a6d565b9150509250925092565b611bd381611a4c565b82525050565b6000602082019050611bee6000830184611bca565b92915050565b600060208284031215611c0a57611c096118d5565b5b6000611c1884828501611b22565b91505092915050565b611c2a81611964565b8114611c3557600080fd5b50565b600081359050611c4781611c21565b92915050565b60008060408385031215611c6457611c636118d5565b5b6000611c7285828601611b22565b9250506020611c8385828601611c38565b9150509250929050565b600080fd5b600080fd5b7f4e487b7100000000000000000000000000000000000000000000000000000000600052604160045260246000fd5b611ccf826119e0565b810181811067ffffffffffffffff82111715611cee57611ced611c97565b5b80604052505050565b6000611d016118cb565b9050611d0d8282611cc6565b919050565b600067ffffffffffffffff821115611d2d57611d2c611c97565b5b611d36826119e0565b9050602081019050919050565b82818337600083830152505050565b6000611d65611d6084611d12565b611cf7565b905082815260208101848484011115611d8157611d80611c92565b5b611d8c848285611d43565b509392505050565b600082601f830112611da957611da8611c8d565b5b8135611db9848260208601611d52565b91505092915050565b60008060008060808587031215611ddc57611ddb6118d5565b5b6000611dea87828801611b22565b9450506020611dfb87828801611b22565b9350506040611e0c87828801611a6d565b925050606085013567ffffffffffffffff811115611e2d57611e2c6118da565b5b611e3987828801611d94565b91505092959194509250565b60008060408385031215611e5c57611e5b6118d5565b5b6000611e6a85828601611b22565b9250506020611e7b85828601611b22565b9150509250929050565b600067ffffffffffffffff821115611ea057611e9f611c97565b5b611ea9826119e0565b9050602081019050919050565b6000611ec9611ec484611e85565b611cf7565b905082815260208101848484011115611ee557611ee4611c92565b5b611ef0848285611d43565b509392505050565b600082601f830112611f0d57611f0c611c8d565b5b8135611f1d848260208601611eb6565b91505092915050565b60008060408385031215611f3d57611f3c6118d5565b5b6000611f4b85828601611b22565b925050602083013567ffffffffffffffff811115611f6c57611f6b6118da565b5b611f7885828601611ef8565b9150509250929050565b7f4e487b7100000000000000000000000000000000000000000000000000000000600052602260045260246000fd5b60006002820490506001821680611fc957607f821691505b602082108103611fdc57611fdb611f82565b5b50919050565b6000606082019050611ff76000830186611ae1565b6120046020830185611bca565b6120116040830184611ae1565b949350505050565b600081905092915050565b600061202f8261199a565b6120398185612019565b93506120498185602086016119b6565b80840191505092915050565b60006120618285612024565b915061206d8284612024565b91508190509392505050565b7f596f75206d7573742073656e642065786163746c7920312053484d20746f206d60008201527f696e7420616e204e465400000000000000000000000000000000000000000000602082015250565b60006120d5602a836119a5565b91506120e082612079565b604082019050919050565b60006020820190508181036000830152612104816120c8565b9050919050565b7f4e487b7100000000000000000000000000000000000000000000000000000000600052601160045260246000fd5b600061214582611a4c565b915061215083611a4c565b92508282019050808211156121685761216761210b565b5b92915050565b600081519050919050565b600082825260208201905092915050565b60006121958261216e565b61219f8185612179565b93506121af8185602086016119b6565b6121b8816119e0565b840191505092915050565b60006080820190506121d86000830187611ae1565b6121e56020830186611ae1565b6121f26040830185611bca565b8181036060830152612204818461218a565b905095945050505050565b60008151905061221e8161190b565b92915050565b60006020828403121561223a576122396118d5565b5b60006122488482850161220f565b91505092915050565b60008190508160005260206000209050919050565b60006020601f8301049050919050565b600082821b905092915050565b6000600883026122b37fffffffffffffffffffffffffffffffffffffffffffffffffffffffffffffffff82612276565b6122bd8683612276565b95508019841693508086168417925050509392505050565b6000819050919050565b60006122fa6122f56122f084611a4c565b6122d5565b611a4c565b9050919050565b6000819050919050565b612314836122df565b61232861232082612301565b848454612283565b825550505050565b600090565b61233d612330565b61234881848461230b565b505050565b5b8181101561236c57612361600082612335565b60018101905061234e565b5050565b601f8211156123b15761238281612251565b61238b84612266565b8101602085101561239a578190505b6123ae6123a685612266565b83018261234d565b50505b505050565b600082821c905092915050565b60006123d4600019846008026123b6565b1980831691505092915050565b60006123ed83836123c3565b9150826002028217905092915050565b6124068261199a565b67ffffffffffffffff81111561241f5761241e611c97565b5b6124298254611fb1565b612434828285612370565b600060209050601f8311600181146124675760008415612455578287015190505b61245f85826123e1565b8655506124c7565b601f19841661247586612251565b60005b8281101561249d57848901518255600182019150602085019450602081019050612478565b868310156124ba57848901516124b6601f8916826123c3565b8355505b6001600288020188555050505b505050505050565b60006040820190506124e46000830185611ae1565b6124f16020830184611bca565b9392505050565b7f4e487b7100000000000000000000000000000000000000000000000000000000600052601260045260246000fdfea2646970667358221220ba60899939d0eb8705914091e3af7594c7bea40b0c3098388e5aa340ff473a6964736f6c63430008140033",
  "linkReferences": {},
  "deployedLinkReferences": {}
}